:020000040800F2
:1000000038070020C1010008CB110008CB0E000802
:10001000C911000809020008491700080000000083
:10002000000000000000000000000000EF110008C8
:100030000B02000800000000ED110008F11100089B
:10004000DB010008DB010008DB010008DB01000820
:10005000DB010008DB010008DB010008DB01000810
:10006000DB010008DB010008DB010008DB01000800
:10007000DB010008DB010008DB010008DB010008F0
:10008000DB010008DB010008DB010008DB010008E0
:10009000DB010008DB010008DB010008DB010008D0
:1000A000DB010008DB010008DB010008DB010008C0
:1000B000DB010008DB010008DB010008DB010008B0
:1000C000DB010008DB010008DB010008DB010008A0
:1000D000DB010008C5160008F11600081D1700080E
:1000E000DB010008DB010008DB010008DB01000880
:1000F000DB010008DB010008DB010008DB01000870
:10010000DB010008DB010008DB010008DB0100085F
:10011000DB010008DB010008DB010008DB0100084F
:10012000DB010008DB010008DB010008DB0100083F
:10013000DB010008DB010008DB010008DB0100082F
:10014000DB010008DB010008DB010008DB0100081F
:10015000DB010008DB010008DB010008DB0100080F
:10016000DB010008DB010008DB010008DB010008FF
:10017000DB010008DB010008DB01000800000000D3
:10018000DB010008DB010008DB010008DB010008DF
:10019000DB010008DB010008DB010008DB010008CF
:1001A000DB010008DB010008DB010008DFF80CD0F0
:1001B00000F018F800480047111800083807002020
:1001C0000648804706480047FEE7FEE7FEE7FEE7F1
:1001D000FEE7FEE7FEE7FEE7FEE7FEE7A9120008FE
:1001E000AD010008064C074D06E0E06840F0010351
:1001F00094E8070098471034AC42F6D3FFF7DAFFD3
:10020000D4180008F4180008FEE7704790F835107D
:10021000022903D08021416501207047052180F823
:1002200035100068016821F001010160002070476D
:100230002DE9F84FDFF890B100224FF001084FF0A0
:10024000030A4FF00F090BF1040E00BF0B6808FA08
:1002500002F42340A3426ED14D68022D01D0122D2D
:100260000ED1D50800EB850CDCF820505607F70EB0
:1002700009FA07F6B5430E69BE402E43CCF820605C
:10028000066855000F790AFA05FC07F0030726EA0D
:100290000C06AF40374307604E68012E05D0022E92
:1002A00003D0112E01D0122E0ED18768CE6827EA16
:1002B0000C07AE403E4386604668A6430C79C4F303
:1002C0000014944034434460C4688E6824EA0C04EB
:1002D000AE402643C6604C68E4006FD53B4C2568B1
:1002E00045F480452560246822F0030504F4804429
:1002F0000094374C2E19D6F8084895072F0F09FAA5
:1003000007F5AC43334DA84201D100252EE0324D14
:10031000A84201D1012529E0304DA84201D1022592
:1003200024E02F4DA84201D103251FE02D4DA84206
:1003300002D104251AE041E02B4DA84201D1052548
:1003400014E02A4DA84201D106250FE0284DA8420D
:1003500001D107250AE0274DA84201D1082505E073
:10036000254DA84201D1092500E00A25BD402543BD
:10037000C6F80858DBF800405D464E689C43F6031B
:1003800000D51C432C60DEF8004075464E689C4347
:10039000B60300D51C432C600B4D08352C684E6805
:1003A0009C43F60200D51C432C60074D0C352C688D
:1003B0004E689C43B60200D51C432C60521C102A88
:1003C000FFF444AFBDE8F88F003C014044380240E0
:1003D00000300140000002400004024000080240DA
:1003E000000C0240001002400014024000180240BD
:1003F000001C024000200240002402400AB181613A
:1004000070470904FBE700000148006870470000DE
:100410000C00002002480168491C01607047000080
:100420000C0000200B4810B5016841F40071016018
:10043000016841F480610160016841F480710160EC
:10044000032000F075F8002000F006F800F018F81E
:10045000002010BD003C024010B5044607484FF490
:100460007A710068B0FBF1F000F065FB00222146D4
:10047000501E00F03DF8002010BD000000000020DC
:1004800010B5032000F054F8002211466FF00B0065
:1004900000F02EF8002211466FF00A0000F028F854
:1004A000002211466FF0090000F022F800221146E8
:1004B000501F00F01DF800221146101F00F018F820
:1004C00000221146901E00F013F80022BDE81040F3
:1004D0001146501E00F00CB800F01F02012191409F
:1004E0004009800000F1E020C0F8001170470000D2
:1004F000F0B40E4B1B680C46C3F30223C3F107058F
:10050000042D00D90425191D072901D2002300E07C
:10051000DB1E012606FA05F1491E214099409E4046
:10052000761E16403143F0BC00F050BE0CED00E0EA
:10053000064900F0070208684FF6FF03184040EA3A
:100540000220034A10430860704700000CED00E0F1
:100550000000FA052DE9F8431E48016841F080517A
:1005600001600068012600F080500090300490FA8D
:10057000A0F0194FB0FA80F047F82060FFF744FF71
:1005800005464FF47A78154C05E000BFFFF73CFFB5
:10059000401B404515D86068C003F7D54FF40030C4
:1005A00090FAA0F0B0FA80F047F82060FFF72CFF37
:1005B0000546464608E000BFFFF726FF401BB04255
:1005C00002D90320BDE8F88360688003F4D50020D9
:1005D000F8E700004038024000000E420070004082
:1005E0002DE9F047DFF8649105460F46D9F8000081
:1005F00000F00F01F8B28046B94208D2014689F8EE
:100600000010D9F8000000F00F00B84274D128782B
:100610004F4C800705D52068A96820F0F0000843FA
:1006200020602878C00759D04949686808390128EE
:100630001AD002281BD0032819D00968890700297D
:100640005ADA216821F0030101432160FFF7DCFE43
:100650006968064641F28830012911D002291DD06F
:100660000329824627D035E009688903E7E709684E
:100670008901E4E7FFF7C8FE811B514501D926E057
:1006800082462068C0F381000128F3D126E000BF34
:10069000FFF7BAFE811B514501D918E08246206858
:1006A000C0F381000228F3D118E000BFFFF7ACFED1
:1006B000811B51450BD82068C0F381000328F5D178
:1006C0000CE000BFFFF7A0FE811B514502D90320BB
:1006D000BDE8F087206810F00C0FF3D1D9F80010B6
:1006E000484601F00F01B94208D980F8008000683F
:1006F00000F00F00B84201D00120E9E72878400758
:1007000005D52068E96820F4E05008432060287887
:10071000000706D52068296920F4604040EAC1003E
:10072000206000F051F82168F02292FAA2F201F064
:10073000F001B2FA82F2D140064A515CC840064943
:1007400008600020FFF788FE0020C1E7003C02405F
:1007500008380240C4180008000000200148006862
:100760007047000000000020084809490068096837
:100770004FF4E05292FAA2F201F4E051B2FA82F29E
:10078000D140044A515CC84070470000000000207E
:1007900008380240C4180008084809490068096878
:1007A0004FF4604292FAA2F201F46041B2FA82F28E
:1007B000D140044A515CC84070470000000000204E
:1007C00008380240C418000830B51948006810F015
:1007D0000C01184812D0441004290ED008290DD15C
:1007E0001349091F0A6802F03F030A68550247F6D9
:1007F000C07204D5B4FBF3F003E0204630BDB0FB7B
:10080000F3F00B680968134092FAA2F2B2FA82F28E
:10081000D34058434FF4403292FAA2F201F44031EF
:10082000B2FA82F2D140491C4900B0FBF1F030BD70
:10083000083802400024F4002DE9F84F0446DFF8A0
:10084000CC820078A8F1040BC007ABF1040537D0C7
:10085000D8F800104046C1F38101012908D0006892
:10086000C0F3810002280AD1DBF80000400206D55F
:100870002868800324D56068002878D020E0A34948
:100880002079891F0870606868B1FFF7BDFD0646D2
:1008900005E000BFFFF7B8FD801B642868D8286812
:1008A0008003F7D50CE0FFF7AFFD064605E000BF7B
:1008B000FFF7AAFD801B6428F0D828688003F7D4CE
:1008C0002078934E80074FF0010A4FF0000742D581
:1008D000D8F80010404611F00C0F08D00068C0F3A3
:1008E000810002280AD1DBF80000400206D4286803
:1008F000800714D5E068012839D110E0E068D8B14C
:10090000C6F800A0FFF780FD814605E0FFF77CFDFB
:10091000A0EB09000228C1D828688007F6D528680E
:10092000F82292FAA2F22169B2FA82F220F0F800DB
:100930009140084328600EE03760FFF765FD81466F
:1009400006E000BFFFF760FDA0EB090002280FD80A
:1009500028688007F6D42078000728D56D4861699B
:10096000A1B1C0F800A0FFF74FFD814608E0CAE042
:1009700079E000BFFFF748FDA0EB0900022872D81C
:1009800062486C3000688007F4D510E00760FFF71C
:100990003BFD814606E000BFFFF736FDA0EB0900F6
:1009A000022860D859486C3000688007F4D4207859
:1009B000400749D555483830016841F08051016001
:1009C000006800F0805000905348016841F4807145
:1009D0000160FFF719FD814606E000BFFFF714FD37
:1009E000A0EB090002283ED84B480068C005F5D5A9
:1009F000DFF81891207A09F1680989F80000A068E9
:100A000088B1FFF701FD009008E000BFFFF7FCFC94
:100A10000099411A41F2883081426CD8D9F800001F
:100A20008007F3D510E0FFF7EFFC009008E000BF6F
:100A3000FFF7EAFC0099411A41F2883081425AD806
:100A4000D9F800008007F3D4A069E0B3D8F800100B
:100A5000C1F38101022956D00228376604D0FFF77E
:100A6000D3FC04464AE046E0FFF7CEFC074604E02C
:100A7000FFF7CAFCC01B02283DD828688001F7D4C4
:100A8000D4E90701084347F6C07292FAA2F2616AFC
:100A9000B2FA82F29140A26A4FF0FF3303EB5202A6
:100AA0004FF4403393FAA3F3B3FA83F39A4011431C
:100AB00008434FF0706292FAA2F2E16AB2FA82F24F
:100AC0009140084300E01CE0CBF80000C6F860A0AD
:100AD000FFF79AFC044604E0FFF796FC001B02288F
:100AE00009D828688001F7D50BE000BFFFF78CFC20
:100AF000001B022802D90320BDE8F88F2868800176
:100B0000F4D40020F8E70120F6E70000083802409E
:100B100000004742800E4742007000404FF0E02145
:100B20000428086903D020F004000861704740F0F1
:100B30000400FAE7704710B5401EB0F1807F01D382
:100B4000012010BD4FF0E02460610F21601700F01C
:100B50003DFB0020A06107202061002010BD10B5E2
:100B6000FFF7E8FF10BD704710F8391F40780843C1
:100B70007047000070B5026804461068D168536978
:100B800010F00F0F51D003F0010501F490763543BA
:100B90005DD0C20705D0CA0503D5E26B42F0010261
:100BA000E263420705D5DA0703D0E26B42F00202A6
:100BB000E263820705D5DA0703D0E26B42F0040254
:100BC000E263020705D5DA0703D0E26B42F00802C0
:100BD000E263E26B002A34D0800604D5880602D591
:100BE000204600F0A1FB20684069E16BC0F3801053
:100BF00001F008010143204624D000F087FB206863
:100C0000416949061AD5416921F040014161606B93
:100C1000A0B11B490165606BFFF7F8FA002810D0FE
:100C2000606B016DBDE87040084783060FD58B06E9
:100C30000DD52046BDE8704000F076BB2046FFF79A
:100C400092FF70BDFFF78FFF0020E06370BD0306C9
:100C500006D50B0604D52046BDE8704000F000BD67
:100C60004006F3D54806F1D5D168204621F0400171
:100C7000D160202184F8391000F026F970BD000001
:100C8000FD12000870B5040004D094F83900002566
:100C900010B106E0012070BD84F83850204600F005
:100CA00023F8242084F839002068C16821F4005119
:100CB000C160204600F07EFB2068016921F490416C
:100CC00001612068416921F02A0141612068C16801
:100CD00041F40051C160E563202084F8390084F8B4
:100CE0003A00002070BD000070B52F4A056802214F
:100CF000012307242D4886B0954219D12C4A156846
:100D000045F0100515601268CDE9023102F01002BD
:100D100005924FF4C062CDE9002104946946FFF7C3
:100D200087FA002201212520FFF7E2FB25201BE0A6
:100D30001F4A204E121FB5421AD1156845F40035DE
:100D400015601268CDE9023102F4003205920C22DE
:100D5000CDE9002104946946FFF76AFA00220221D6
:100D60002620FFF7C5FB2620FFF7B6FB06B070BDB7
:100D700011488542FAD1106840F480201060106854
:100D800000F4802005904FF440608DE80B00CDE921
:100D9000031469460948FFF74BFA00220321272074
:100DA000FFF7A6FB2720DFE700100140000002400C
:100DB0004438024000440040004800400004024023
:100DC00090F83A30202B1DD1D1B1CAB190F838300B
:100DD000012B17D081628285C2850021C163222246
:100DE00080F83A2080F8381001684A6942F0010220
:100DF0004A610068C16841F49071C1600020704789
:100E0000012070470220704730B500682249002257
:100E1000884213D1214801880B0406D4204B4C048E
:100E20001B7803D50A2B31D0028030BD0D2B30D07A
:100E3000C1F30D041B4D11E0018030BD1A498842F9
:100E400013D11A4801880B04F7D4194B4C041B78B2
:100E5000E8D40D2B1DD0174DC1F30D04491C89B2E8
:100E60002B550180C729DFD830BD13498842FBD1FB
:100E7000124801880B04F7D4114B4C041B78D1D4D1
:100E80000D2B06D0C1F30D040E4DE7E741F40041F0
:100E9000D2E741F48041CFE700100140100000206C
:100EA000160000201C00002000440040120000201A
:100EB00017000020E400002000480040140000203B
:100EC00018000020AC0100207047FEE770B50D4C03
:100ED0000025C4F890520C48016821F4406101607B
:100EE000016841F480610160C4F894520A2004F55D
:100EF000247400F073FC012020600A2000F06EFCD6
:100F0000256070BD00804342001C024070B50D4C4E
:100F10000025C4F890520C48016821F4406101603A
:100F2000016841F4806101600126C4F894620A20DE
:100F300004F5247400F052FC26600A2000F04EFCF8
:100F4000256070BD00804342001C02402DE9F0473F
:100F5000814616480024016821F44061016001685F
:100F60000160134E254627464FF00108C6F89072DF
:100F70000A2000F033FCC6F890826006040ED6F812
:100F8000140208B1641CE4B2052000F027FC6D1CBB
:100F9000EDB2082DEAD3B9F1000F04D0FFF796FFA8
:100FA0002046BDE8F087FFF7B1FFF9E7001C0240DB
:100FB000008043422DE9F04106461448016821F4BF
:100FC00040610160016841F480610160104C0027BC
:100FD000C4F890723D464FF00108F009C4F894023D
:100FE0007006060E0A2000F0F9FBC4F890820A2071
:100FF00000F0F4FBC4F890720A2000F0EFFB6D1CC7
:10100000EDB2082DE9D3BDE8F0810000001C0240DC
:101010000080434270B50D48016821F440610160D1
:10102000016841F480610160094C0120C4F8940218
:10103000C4F890020A2004F5247400F0CFFB0025C8
:1010400065600A2000F0CAFB256070BD001C0240EC
:10105000008043420E4810B5016821F440610160F0
:10106000016841F4806101600A4C0020C4F89002DC
:10107000C4F894020A2004F5247400F0AFFB0120A8
:1010800020606060BDE810400A2000F0A7BB0000AF
:10109000001C02400080434270B5124800240168E1
:1010A00021F440610160016801600F4D0126C5F81F
:1010B0009462062000F092FBC5F89062062000F0D2
:1010C0008DFB07E0641CE4B2FA2C03D9FFF7C2FFE2
:1010D000012070BDD5F814020028F3D1C5F89002A4
:1010E00070BD0000001C02400080434270B50D46F8
:1010F0000446FFF78FFF2046FFF75CFFFFF7CCFFAA
:101100002846FFF757FFFFF7C7FFFFF783FF641C71
:10111000E0B2FFF74FFFFFF7BFFF322000F05EFBAA
:101120000020FFF713FF0446FFF794FF204670BD31
:1011300070B515460E460446FFF76CFF2046FFF7D4
:1011400039FFFFF7A9FF3046FFF734FFFFF7A4FF91
:101150002846FFF72FFFFFF79FFFBDE87040FFF71E
:1011600079BF0000164810B5016886B041F08001D3
:101170000160016801F080010591016841F0010101
:101180000160016801F001010591016841F002016F
:10119000016000680B4C00F0020005900022012164
:1011A0002046FFF72BF901210220CDE90210009122
:1011B000019169462046FFF73BF806B010BD0000DC
:1011C0003038024000040240FEE770470907090E6C
:1011D000002806DA00F00F0000F1E02080F8141D6E
:1011E000704700F1E02080F80014704770477047A6
:1011F00010B5FFF70FF9BDE81040FFF7B0BC0000D5
:1012000030B5274893B00025016841F08051016056
:10121000006800F0805011902248016841F440417C
:1012200001600068022400F4404011900120009009
:1012300001908005CDE90640082008904FF4B47075
:10124000CDE9090404200B906846FFF7F5FA00B1D8
:10125000FEE7FFF77FF900B1FEE70CA90F2081E858
:1012600031004FF4A0500F904FF4805010900521A2
:101270000CA8FFF7B5F900B1FEE7FFF76FFA4FF4DE
:101280007A71B0FBF1F0FFF756FC0420FFF746FC43
:1012900000221146501EFFF72BF913B030BD00009D
:1012A00040380240007000401048016841F470016D
:1012B00001600F48016841F0010101600C4A002102
:1012C0000832116002680B4B1A400260031D0A4A83
:1012D0001A60026822F48022026005480C30016026
:1012E00002495806803908607047000088ED00E028
:1012F00000380240FFFFF6FE1030002410B5806B6E
:101300000021C185C184FFF72EFC10BD0168CA68A9
:1013100022F49072CA6001684A6922F001024A61AF
:10132000202180F83A10704710B590F83A10222921
:1013300001D0022010BD8168B1F5805F11D0016934
:10134000002901681FD0496801F07F03816A4A1CA7
:1013500082620B70C18D491E0904090CC18518D029
:1013600026E00269816A002A0268526805D0D2B27A
:101370000A80816A491C8162ECE7C2F308020A8094
:10138000816A891CF7E74A68816A4B1C83620A708C
:10139000E0E70168CA6822F49072CA6001684A698D
:1013A00022F001024A61202180F83A10FFF72CFD5B
:1013B000002010BD2DE9F04104460068016921F4C8
:1013C0004052E168114301612168C86849F20C622A
:1013D00090432369A268E5691A4363692B431A4362
:1013E0000243CA602168486920F44072A069104332
:1013F0004861E1696425B1F5004F9748974A216833
:101400004FF032083FD0914201D081427CD1FFF7AA
:10141000C3F900EBC00101EB001061688900B0FB6B
:10142000F1F6FFF7B9F900EBC00101EB00106168BC
:101430008900B0FBF1F0B0FBF5F06FF01801484304
:1014400006EB800108EB0110B0FBF5F000F0F006B0
:10145000FFF7A2F900EBC00101EB00106168890001
:10146000B0FBF1F0B0FBF5F006EB0016FFF794F9D6
:1014700000EBC00101EB001061688900B0FBF1F7DF
:10148000FFF78AF9D2E0914201D081423DD1FFF7C6
:1014900083F900EBC00101EB001061684900B0FB6B
:1014A000F1F0B0FBF5F00601FFF776F900EBC001B3
:1014B00001EB001061684900B0FBF1F7FFF76CF930
:1014C00000EBC00101EB001061684900B0FBF1F0D6
:1014D000B0FBF5F06FF01801484307EB800108EB13
:1014E000C100B0FBF5F000F0F80006EB4006FFF796
:1014F00053F900EBC00101EB001061684900B0FB3B
:10150000F1F7FFF749F93CE055E0FFF72DF900EB63
:10151000C00101EB001061684900B0FBF1F0B0FBC5
:10152000F5F00601FFF720F900EBC00101EB001018
:1015300061684900B0FBF1F7FFF716F900EBC00155
:1015400001EB001061684900B0FBF1F0B0FBF5F071
:101550006FF01801484307EB800108EBC100B0FBB6
:10156000F5F000F0F80006EB4006FFF7FDF800EBA1
:10157000C00101EB001061684900B0FBF1F7FFF713
:10158000F3F800EBC00101EB001061684900B0FB0B
:10159000F1F0B0FBF5F06FF01801484307EB800164
:1015A00008EBC100B0FBF5F000F007002168304403
:1015B0008860BDE8F081FFF7D7F800EBC00101EBD0
:1015C000001061688900B0FBF1F6FFF7CDF800EB81
:1015D000C00101EB001061688900B0FBF1F0B0FBC5
:1015E000F5F06FF01801484306EB800108EB01109D
:1015F000B0FBF5F000F0F006FFF7B6F800EBC00125
:1016000001EB001061688900B0FBF1F0B0FBF5F070
:1016100006EB0016FFF7A8F800EBC00101EB001085
:1016200061688900B0FBF1F7FFF79EF800EBC0019D
:1016300001EB001061688900B0FBF1F0B0FBF5F040
:101640006FF01801484307EB800108EB0110B0FB75
:10165000F5F000F00F00A9E7001401400010014070
:1016600090F83910212901D0022070478168B1F526
:10167000805F016A0BD04A1C0262026809785160DF
:10168000C18C491E0904090CC1840ED017E00988D9
:101690000268C1F30801516001690029016A02D0A2
:1016A000491C0162ECE7891CFBE70168CA6822F06B
:1016B0008002CA600068C16841F04001C16000203A
:1016C0007047000010B50848FFF754FA0648FFF7C6
:1016D0004BFA2028FAD1012204490348FFF770FB96
:1016E0000028F8D110BD0000740200201600002070
:1016F00010B50848FFF73EFA0648FFF735FA2028EC
:10170000FAD1012204490348FFF75AFB0028F8D117
:1017100010BD0000B40200201700002010B50848DA
:10172000FFF728FA0648FFF71FFA2028FAD101220E
:1017300004490348FFF744FB0028F8D110BD00001E
:10174000F402002018000020FEE7000070B5B0226F
:101750000221E820FFF7ECFC502000F031F80221D4
:10176000E820FFF7C3FC084C4FF6FF7505EA0020A0
:1017700020800321E820FFF7B9FC2188084480B2CB
:10178000208005EA400070BD0800002002E008C883
:10179000121F08C1002AFAD170477047002001E0EB
:1017A00001C1121F002AFBD17047000010B504468A
:1017B0000420FFF7B3F90148046010BD04000020C5
:1017C00070B5054600244FF47A7603E0304600F009
:1017D00005F8641CAC42F9D370BD000070B54FF041
:1017E000E024002265690949A36909684843A169A1
:1017F0009942FCD002D2A3EB010302E0A5EB010663
:1018000033441A440B468242F1D370BD04000020D9
:10181000FEF708FEFFF7F4FCB420FFF7C7FFFFF761
:10182000A1FC244822494FF4165600240160C0E967
:1018300001640C25C460C0E904458461C461FFF7FC
:1018400021FA00B1FEE71B481B4940300160C0E9A6
:101850000164C460C0E904458461C461FFF712FA01
:1018600000B1FEE71348154980300160C0E901640A
:10187000C460C0E904458461C461FFF703FA00B1A4
:10188000FEE701220E490B48FFF79AFA0C49094876
:101890000122491C4030FFF793FA0949054801220B
:1018A000891C8030FFF78CFAFFF750FFFCE700003F
:1018B0000010014074020020004400400048004035
:1018C00016000020000000000102030401020304CE
:1018D00006070809F4180008000000201C0000009A
:1018E0008C170008101900081C0000201C070000BD
:1018F0009C1700080024F400000000000000000015
:1019000000000000000000000000000000000000D7
:04000005080001AD41
:00000001FF
